:100000000EC028C027C026C025C06BC223C022C096
:1000100021C020C02DC01EC01DC01CC01BC011248B
:100020001FBECFE5D2E0DEBFCDBF10E0A0E6B0E05E
:10003000E0E8F6E002C005900D92A63EB107D9F7C0
:1000400021E0A6EEB0E001C01D92A030B207E1F7BA
:1000500033D214C3D5CF87E087BBF89483E08ABD41
:100060008AE083BF80E189BF81E389BD78940895E8
:100070001F920F920FB60F9211242F933F934F931D
:100080005F938F939F938091EB009091EC00209170
:10009000640030916500820F931F9093EC00809371
:1000A000EB008091E9009091EA002091620030918C
:1000B0006300820F931F9093EA008093E900809180
:1000C000E7009091E8002091600030916100820F7C
:1000D000931F9093E8008093E7004091EB005091CC
:1000E000EC002091E9003091EA008091E7009091C6
:1000F000E8004091ED0057FF14C040FF12C0C09AC5
:1001000037FF11C0C19A97FF10C0C29A9F918F917B
:100110005F914F913F912F910F900FBE0F901F90C5
:100120001895C098EDCFC198EECFC298EFCFE0916F
:10013000EE00F091EF0080E0E830F105E0F4EA55E0
:10014000FF4F8091F0009091F100099407C01FC00B
:100150002BC037C043C04FC05BC067C0409724F07E
:100160001092F1001092F000E091F000F091F10097
:10017000EA52FF4F80812091F0003091F1002F5F13
:100180003F4F3093F1002093F0008770089540971F
:1001900024F01092F1001092F000E091F000F09144
:1001A000F100EA53FF4FE6CF409724F01092F100A0
:1001B0001092F000E091F000F091F100EA54FF4F4E
:1001C000D9CF409724F01092F1001092F000E09106
:1001D000F000F091F100EA55FF4FCCCF409724F0AA
:1001E0001092F1001092F000E091F000F091F10017
:1001F000EA56FF4FBFCF409724F01092F1001092C3
:10020000F000E091F000F091F100EA57FF4FB2CF1B
:10021000409724F01092F1001092F000E091F0006D
:10022000F091F100EA58FF4FA5CF409724F01092CB
:10023000F1001092F000E091F000F091F100EA5925
:10024000FF4F98CF8B30910554F185319105ACF07B
:100250008F319105ACF089329105ACF08333910573
:10026000ACF08D339105ACF087349105ACF081355D
:100270009105ACF487E090E0089581E090E0089566
:1002800082E090E0089583E090E0089584E090E0BB
:10029000089585E090E0089586E090E0089590E06C
:1002A00080E008958091E600843140F48091E6007A
:1002B00091E0980F9093E6008093E60080916400AF
:1002C00090916500893C910500F1809164009091C6
:1002D00065002091E600821B910990936500809350
:1002E00064008091620090916300893C910590F0D8
:1002F00080916200909163002091E600821B910939
:1003000090936300809362000895109265001092AC
:100310006400E7CF10926300109262000895AF92DC
:10032000BF92CF92DF92EF92FF920F931F93CF93E2
:1003300083E836D1BC01990F880B990B1F921F924D
:10034000C1E0CF932CE22F9320EDA22E27E0B22E16
:10035000C12CD12CEE24EA9413E0F12E00E010E041
:1003600020E030E0A9015FD07093F3006093F200C9
:1003700082E816D1BC01990F880B990B1F921F922E
:100380001F9220E52F93A12CB12C650120E030E0D5
:10039000A90149D0CB0156DF9093EF008093EE0086
:1003A00081DF2091F4003091F5008091F20090916E
:1003B000F3004DB75EB7485F5F4F0FB6F8945EBF6E
:1003C0000FBE4DBF28173907DCF01092F5001092D0
:1003D000F400ADDE8093ED0081EA9AE09093650031
:1003E0008093640082E697E09093630080936200BC
:1003F0008AE095E09093610080936000C093E600EE
:100400008091F4009091F50001969093F50080930F
:10041000F400CF911F910F91FF90EF90DF90CF905C
:10042000BF90AF9008954F925F926F927F92AF927C
:10043000BF92CF92DF92EF92FF920F931F93CF93D1
:10044000DF9300D000D0CDB7DEB729013A01E982B1
:10045000FA820B831C8364197509860997090D8933
:100460001E892F89388DA90198012A193B094C0949
:100470005D09ADD029813A814B815C812419350910
:1004800046095709BDD0CA01B9016A0D7B1D8C1DF3
:100490009D1D0F900F900F900F90DF91CF911F91A6
:1004A0000F91FF90EF90DF90CF90BF90AF907F9033
:1004B0006F905F904F90089581B781BF5CD0CBDD86
:1004C0002EDFFECF80B7807F80BF80B7806880BF7F
:1004D0008CB580648CBD8FEF8DBD80B7876080BF89
:1004E00008951F920F920FB60F9211242F933F93EE
:1004F0008F939F93AF93BF938091F7009091F800F3
:10050000A091F900B091FA003091F60026E0230F97
:100510002D3768F129E8230F0396A11DB11D209303
:10052000F6008093F7009093F800A093F900B09341
:10053000FA008091FB009091FC00A091FD00B09129
:10054000FE000196A11DB11D8093FB009093FC005D
:10055000A093FD00B093FE00BF91AF919F918F914A
:100560003F912F910F900FBE0F901F9018950296FC
:10057000A11DB11DD4CF8AB582608ABD8AB58160C4
:100580008ABD83B7887F836083BF789489B7826090
:1005900089BF98DF86B18877866886B9379A0895CB
:1005A0009091FF009295990F990F907C8F70982BE6
:1005B00097B997B18091FF00880F880F8071892BC0
:1005C00087B9369A3699FECF84B195B10895EE2752
:1005D000FF27AA27BB2708C0A20FB31FE41FF51FE0
:1005E000220F331F441F551F969587957795679562
:1005F00098F37040A9F7009799F7BD01CF010895CE
:10060000052E97FB16F400940FD057FD05D014D09B
:1006100007FC02D046F408C05095409530952195CE
:100620003F4F4F4F5F4F089590958095709561951E
:100630007F4F8F4F9F4F0895A1E21A2EAA1BBB1B1D
:10064000FD010DC0AA1FBB1FEE1FFF1FA217B3079E
:10065000E407F50720F0A21BB30BE40BF50B661FB4
:10066000771F881F991F1A9469F760957095809578
:1006700090959B01AC01BD01CF010895F894FFCF87
:100680000A056207A10A0100020102040100020139
:100690000401020003050200000102000100020043
:1006A000000102000300020001020002010002003A
:1006B000010200020100020001000000020002002D
:1006C000010000000100030001000100010003001F
:1006D0000100010001000200000001000000020012
:1006E00000000100010102000400010004000200FA
:1006F00004000100040001000000030000000100EC
:06070000000007000000EC
:00000001FF
